{
  "abi": [
    {
      "inputs": [
        {
          "internalType": "uint256",
          "name": "_interval",
          "type": "uint256"
        }
      ],
      "stateMutability": "nonpayable",
      "type": "constructor"
    },
    {
      "anonymous": false,
      "inputs": [
        {
          "indexed": true,
          "internalType": "address",
          "name": "owner",
          "type": "address"
        },
        {
          "indexed": true,
          "internalType": "address",
          "name": "approved",
          "type": "address"
        },
        {
          "indexed": true,
          "internalType": "uint256",
          "name": "tokenId",
          "type": "uint256"
        }
      ],
      "name": "Approval",
      "type": "event"
    },
    {
      "anonymous": false,
      "inputs": [
        {
          "indexed": true,
          "internalType": "address",
          "name": "owner",
          "type": "address"
        },
        {
          "indexed": true,
          "internalType": "address",
          "name": "operator",
          "type": "address"
        },
        {
          "indexed": false,
          "internalType": "bool",
          "name": "approved",
          "type": "bool"
        }
      ],
      "name": "ApprovalForAll",
      "type": "event"
    },
    {
      "anonymous": false,
      "inputs": [
        {
          "indexed": true,
          "internalType": "address",
          "name": "from",
          "type": "address"
        },
        {
          "indexed": true,
          "internalType": "address",
          "name": "to",
          "type": "address"
        },
        {
          "indexed": true,
          "internalType": "uint256",
          "name": "tokenId",
          "type": "uint256"
        }
      ],
      "name": "Transfer",
      "type": "event"
    },
    {
      "inputs": [
        {
          "internalType": "address",
          "name": "to",
          "type": "address"
        },
        {
          "internalType": "uint256",
          "name": "tokenId",
          "type": "uint256"
        }
      ],
      "name": "approve",
      "outputs": [],
      "stateMutability": "nonpayable",
      "type": "function"
    },
    {
      "inputs": [
        {
          "internalType": "address",
          "name": "owner",
          "type": "address"
        }
      ],
      "name": "balanceOf",
      "outputs": [
        {
          "internalType": "uint256",
          "name": "",
          "type": "uint256"
        }
      ],
      "stateMutability": "view",
      "type": "function"
    },
    {
      "inputs": [],
      "name": "checkUpkeep",
      "outputs": [
        {
          "internalType": "bool",
          "name": "upkeepNeeded",
          "type": "bool"
        },
        {
          "internalType": "bytes",
          "name": "performData",
          "type": "bytes"
        }
      ],
      "stateMutability": "view",
      "type": "function"
    },
    {
      "inputs": [
        {
          "internalType": "string",
          "name": "a",
          "type": "string"
        },
        {
          "internalType": "string",
          "name": "b",
          "type": "string"
        }
      ],
      "name": "compareStrings",
      "outputs": [
        {
          "internalType": "bool",
          "name": "",
          "type": "bool"
        }
      ],
      "stateMutability": "pure",
      "type": "function"
    },
    {
      "inputs": [
        {
          "internalType": "uint256",
          "name": "_tokenId",
          "type": "uint256"
        }
      ],
      "name": "flowerStage",
      "outputs": [
        {
          "internalType": "uint256",
          "name": "",
          "type": "uint256"
        }
      ],
      "stateMutability": "view",
      "type": "function"
    },
    {
      "inputs": [
        {
          "internalType": "uint256",
          "name": "tokenId",
          "type": "uint256"
        }
      ],
      "name": "getApproved",
      "outputs": [
        {
          "internalType": "address",
          "name": "",
          "type": "address"
        }
      ],
      "stateMutability": "view",
      "type": "function"
    },
    {
      "inputs": [
        {
          "internalType": "uint256",
          "name": "_tokenId",
          "type": "uint256"
        }
      ],
      "name": "growFlower",
      "outputs": [],
      "stateMutability": "nonpayable",
      "type": "function"
    },
    {
      "inputs": [
        {
          "internalType": "address",
          "name": "owner",
          "type": "address"
        },
        {
          "internalType": "address",
          "name": "operator",
          "type": "address"
        }
      ],
      "name": "isApprovedForAll",
      "outputs": [
        {
          "internalType": "bool",
          "name": "",
          "type": "bool"
        }
      ],
      "stateMutability": "view",
      "type": "function"
    },
    {
      "inputs": [],
      "name": "name",
      "outputs": [
        {
          "internalType": "string",
          "name": "",
          "type": "string"
        }
      ],
      "stateMutability": "view",
      "type": "function"
    },
    {
      "inputs": [
        {
          "internalType": "uint256",
          "name": "tokenId",
          "type": "uint256"
        }
      ],
      "name": "ownerOf",
      "outputs": [
        {
          "internalType": "address",
          "name": "",
          "type": "address"
        }
      ],
      "stateMutability": "view",
      "type": "function"
    },
    {
      "inputs": [
        {
          "internalType": "bytes",
          "name": "performData",
          "type": "bytes"
        }
      ],
      "name": "performUpkeep",
      "outputs": [],
      "stateMutability": "nonpayable",
      "type": "function"
    },
    {
      "inputs": [
        {
          "internalType": "address",
          "name": "to",
          "type": "address"
        }
      ],
      "name": "safeMint",
      "outputs": [],
      "stateMutability": "nonpayable",
      "type": "function"
    },
    {
      "inputs": [
        {
          "internalType": "address",
          "name": "from",
          "type": "address"
        },
        {
          "internalType": "address",
          "name": "to",
          "type": "address"
        },
        {
          "internalType": "uint256",
          "name": "tokenId",
          "type": "uint256"
        }
      ],
      "name": "safeTransferFrom",
      "outputs": [],
      "stateMutability": "nonpayable",
      "type": "function"
    },
    {
      "inputs": [
        {
          "internalType": "address",
          "name": "from",
          "type": "address"
        },
        {
          "internalType": "address",
          "name": "to",
          "type": "address"
        },
        {
          "internalType": "uint256",
          "name": "tokenId",
          "type": "uint256"
        },
        {
          "internalType": "bytes",
          "name": "data",
          "type": "bytes"
        }
      ],
      "name": "safeTransferFrom",
      "outputs": [],
      "stateMutability": "nonpayable",
      "type": "function"
    },
    {
      "inputs": [
        {
          "internalType": "address",
          "name": "operator",
          "type": "address"
        },
        {
          "internalType": "bool",
          "name": "approved",
          "type": "bool"
        }
      ],
      "name": "setApprovalForAll",
      "outputs": [],
      "stateMutability": "nonpayable",
      "type": "function"
    },
    {
      "inputs": [
        {
          "internalType": "bytes4",
          "name": "interfaceId",
          "type": "bytes4"
        }
      ],
      "name": "supportsInterface",
      "outputs": [
        {
          "internalType": "bool",
          "name": "",
          "type": "bool"
        }
      ],
      "stateMutability": "view",
      "type": "function"
    },
    {
      "inputs": [],
      "name": "symbol",
      "outputs": [
        {
          "internalType": "string",
          "name": "",
          "type": "string"
        }
      ],
      "stateMutability": "view",
      "type": "function"
    },
    {
      "inputs": [
        {
          "internalType": "uint256",
          "name": "tokenId",
          "type": "uint256"
        }
      ],
      "name": "tokenURI",
      "outputs": [
        {
          "internalType": "string",
          "name": "",
          "type": "string"
        }
      ],
      "stateMutability": "view",
      "type": "function"
    },
    {
      "inputs": [
        {
          "internalType": "address",
          "name": "from",
          "type": "address"
        },
        {
          "internalType": "address",
          "name": "to",
          "type": "address"
        },
        {
          "internalType": "uint256",
          "name": "tokenId",
          "type": "uint256"
        }
      ],
      "name": "transferFrom",
      "outputs": [],
      "stateMutability": "nonpayable",
      "type": "function"
    }
  ],
  "bytecode": {
    "object": "0x610160604052604d60e081815260809182919062001fea61010039815260200160405180608001604052806056815260200162001f3e60569139815260200160405180608001604052806056815260200162001f946056913990526200006a90600890600362000106565b503480156200007857600080fd5b5060405162002037380380620020378339810160408190526200009b91620001dd565b60405180604001604052806005815260200164644e46547360d81b815250604051806040016040528060048152602001631913919560e21b8152508160009081620000e791906200029c565b506001620000f682826200029c565b505050600a554260095562000368565b82805482825590600052602060002090810192821562000151579160200282015b828111156200015157825182906200014090826200029c565b509160200191906001019062000127565b506200015f92915062000163565b5090565b808211156200015f5760006200017a828262000184565b5060010162000163565b50805462000192906200020d565b6000825580601f10620001a3575050565b601f016020900490600052602060002090810190620001c39190620001c6565b50565b5b808211156200015f5760008155600101620001c7565b600060208284031215620001f057600080fd5b5051919050565b634e487b7160e01b600052604160045260246000fd5b600181811c908216806200022257607f821691505b6020821081036200024357634e487b7160e01b600052602260045260246000fd5b50919050565b601f8211156200029757600081815260208120601f850160051c81016020861015620002725750805b601f850160051c820191505b8181101562000293578281556001016200027e565b5050505b505050565b81516001600160401b03811115620002b857620002b8620001f7565b620002d081620002c984546200020d565b8462000249565b602080601f831160018114620003085760008415620002ef5750858301515b600019600386901b1c1916600185901b17855562000293565b600085815260208120601f198616915b82811015620003395788860151825594840194600190910190840162000318565b5085821015620003585787850151600019600388901b60f8161c191681555b5050505050600190811b01905550565b611bc680620003786000396000f3fe608060405234801561001057600080fd5b50600436106101215760003560e01c80636352211e116100ad578063b88d4fde11610071578063b88d4fde14610267578063bed34bba1461027a578063c87b56dd1461028d578063d9f2f7a2146102a0578063e985e9c5146102b357600080fd5b80636352211e1461020257806370a082311461021557806395d89b4114610236578063a13abdad1461023e578063a22cb4651461025457600080fd5b806323b872dd116100f457806323b872dd146101a35780632b98af8d146101b657806340d097c3146101c957806342842e0e146101dc5780634585e33b146101ef57600080fd5b806301ffc9a71461012657806306fdde031461014e578063081812fc14610163578063095ea7b31461018e575b600080fd5b6101396101343660046114af565b6102ef565b60405190151581526020015b60405180910390f35b610156610341565b604051610145919061151c565b61017661017136600461152f565b6103d3565b6040516001600160a01b039091168152602001610145565b6101a161019c366004611564565b6103fa565b005b6101a16101b136600461158e565b610514565b6101a16101c436600461152f565b610545565b6101a16101d73660046115ca565b610624565b6101a16101ea36600461158e565b6106fd565b6101a16101fd3660046115e5565b610718565b61017661021036600461152f565b61073c565b6102286102233660046115ca565b61079c565b604051908152602001610145565b610156610822565b610246610831565b604051610145929190611657565b6101a1610262366004611672565b61084d565b6101a161027536600461173a565b610858565b6101396102883660046117d6565b610890565b61015661029b36600461152f565b6108e9565b6102286102ae36600461152f565b6108f4565b6101396102c136600461183a565b6001600160a01b03918216600090815260056020908152604080832093909416825291909152205460ff1690565b60006001600160e01b031982166380ac58cd60e01b148061032057506001600160e01b03198216635b5e139f60e01b145b8061033b57506301ffc9a760e01b6001600160e01b03198316145b92915050565b6060600080546103509061186d565b80601f016020809104026020016040519081016040528092919081815260200182805461037c9061186d565b80156103c95780601f1061039e576101008083540402835291602001916103c9565b820191906000526020600020905b8154815290600101906020018083116103ac57829003601f168201915b5050505050905090565b60006103de826109ef565b506000908152600460205260409020546001600160a01b031690565b60006104058261073c565b9050806001600160a01b0316836001600160a01b0316036104775760405162461bcd60e51b815260206004820152602160248201527f4552433732313a20617070726f76616c20746f2063757272656e74206f776e656044820152603960f91b60648201526084015b60405180910390fd5b336001600160a01b0382161480610493575061049381336102c1565b6105055760405162461bcd60e51b815260206004820152603d60248201527f4552433732313a20617070726f76652063616c6c6572206973206e6f7420746f60448201527f6b656e206f776e6572206f7220617070726f76656420666f7220616c6c000000606482015260840161046e565b61050f8383610a51565b505050565b61051e3382610abf565b61053a5760405162461bcd60e51b815260040161046e906118a7565b61050f838383610b3e565b6002610550826108f4565b106105585750565b6000610563826108f4565b61056e90600161190a565b90506000600882815481106105855761058561191d565b90600052602060002001805461059a9061186d565b80601f01602080910402602001604051908101604052809291908181526020018280546105c69061186d565b80156106135780601f106105e857610100808354040283529160200191610613565b820191906000526020600020905b8154815290600101906020018083116105f657829003601f168201915b5050505050905061050f8382610caf565b600061062f60075490565b905061063f600780546001019055565b6106498282610d42565b6106f98160086000815481106106615761066161191d565b9060005260206000200180546106769061186d565b80601f01602080910402602001604051908101604052809291908181526020018280546106a29061186d565b80156106ef5780601f106106c4576101008083540402835291602001916106ef565b820191906000526020600020905b8154815290600101906020018083116106d257829003601f168201915b5050505050610caf565b5050565b61050f83838360405180602001604052806000815250610858565b600a546009546107289042611933565b11156106f957426009556106f96000610545565b6000818152600260205260408120546001600160a01b03168061033b5760405162461bcd60e51b8152602060048201526018602482015277115490cdcc8c4e881a5b9d985b1a59081d1bdad95b88125160421b604482015260640161046e565b60006001600160a01b0382166108065760405162461bcd60e51b815260206004820152602960248201527f4552433732313a2061646472657373207a65726f206973206e6f7420612076616044820152683634b21037bbb732b960b91b606482015260840161046e565b506001600160a01b031660009081526003602052604090205490565b6060600180546103509061186d565b60006060600a54600954426108469190611933565b1191509091565b6106f9338383610d5c565b6108623383610abf565b61087e5760405162461bcd60e51b815260040161046e906118a7565b61088a84848484610e2a565b50505050565b6000816040516020016108a39190611946565b60405160208183030381529060405280519060200120836040516020016108ca9190611946565b6040516020818303038152906040528051906020012014905092915050565b606061033b82610e5d565b600080610900836108e9565b90506109b281600860008154811061091a5761091a61191d565b90600052602060002001805461092f9061186d565b80601f016020809104026020016040519081016040528092919081815260200182805461095b9061186d565b80156109a85780601f1061097d576101008083540402835291602001916109a8565b820191906000526020600020905b81548152906001019060200180831161098b57829003601f168201915b5050505050610890565b156109c05750600092915050565b6109d881600860018154811061091a5761091a61191d565b156109e65750600192915050565b50600292915050565b6000818152600260205260409020546001600160a01b0316610a4e5760405162461bcd60e51b8152602060048201526018602482015277115490cdcc8c4e881a5b9d985b1a59081d1bdad95b88125160421b604482015260640161046e565b50565b600081815260046020526040902080546001600160a01b0319166001600160a01b0384169081179091558190610a868261073c565b6001600160a01b03167f8c5be1e5ebec7d5bd14f71427d1e84f3dd0314c0f7b2291e5b200ac8c7c3b92560405160405180910390a45050565b600080610acb8361073c565b9050806001600160a01b0316846001600160a01b03161480610b1257506001600160a01b0380821660009081526005602090815260408083209388168352929052205460ff165b80610b365750836001600160a01b0316610b2b846103d3565b6001600160a01b0316145b949350505050565b826001600160a01b0316610b518261073c565b6001600160a01b031614610b775760405162461bcd60e51b815260040161046e90611962565b6001600160a01b038216610bd95760405162461bcd60e51b8152602060048201526024808201527f4552433732313a207472616e7366657220746f20746865207a65726f206164646044820152637265737360e01b606482015260840161046e565b610be68383836001610f65565b826001600160a01b0316610bf98261073c565b6001600160a01b031614610c1f5760405162461bcd60e51b815260040161046e90611962565b600081815260046020908152604080832080546001600160a01b03199081169091556001600160a01b0387811680865260038552838620805460001901905590871680865283862080546001019055868652600290945282852080549092168417909155905184937fddf252ad1be2c89b69c2b068fc378daa952ba7f163c4a11628f55a4df523b3ef91a4505050565b6000828152600260205260409020546001600160a01b0316610d2a5760405162461bcd60e51b815260206004820152602e60248201527f45524337323155524953746f726167653a2055524920736574206f66206e6f6e60448201526d32bc34b9ba32b73a103a37b5b2b760911b606482015260840161046e565b600082815260066020526040902061050f82826119f5565b6106f9828260405180602001604052806000815250610fed565b816001600160a01b0316836001600160a01b031603610dbd5760405162461bcd60e51b815260206004820152601960248201527f4552433732313a20617070726f766520746f2063616c6c657200000000000000604482015260640161046e565b6001600160a01b03838116600081815260056020908152604080832094871680845294825291829020805460ff191686151590811790915591519182527f17307eab39ab6107e8899845ad3d59bd9653f200f220920489ca2b5937696c31910160405180910390a3505050565b610e35848484610b3e565b610e4184848484611020565b61088a5760405162461bcd60e51b815260040161046e90611ab5565b6060610e68826109ef565b60008281526006602052604081208054610e819061186d565b80601f0160208091040260200160405190810160405280929190818152602001828054610ead9061186d565b8015610efa5780601f10610ecf57610100808354040283529160200191610efa565b820191906000526020600020905b815481529060010190602001808311610edd57829003601f168201915b505050505090506000610f1860408051602081019091526000815290565b90508051600003610f2a575092915050565b815115610f5c578082604051602001610f44929190611b07565b60405160208183030381529060405292505050919050565b610b3684611121565b600181111561088a576001600160a01b03841615610fab576001600160a01b03841660009081526003602052604081208054839290610fa5908490611933565b90915550505b6001600160a01b0383161561088a576001600160a01b03831660009081526003602052604081208054839290610fe290849061190a565b909155505050505050565b610ff78383611195565b6110046000848484611020565b61050f5760405162461bcd60e51b815260040161046e90611ab5565b60006001600160a01b0384163b1561111657604051630a85bd0160e11b81526001600160a01b0385169063150b7a0290611064903390899088908890600401611b36565b6020604051808303816000875af192505050801561109f575060408051601f3d908101601f1916820190925261109c91810190611b73565b60015b6110fc573d8080156110cd576040519150601f19603f3d011682016040523d82523d6000602084013e6110d2565b606091505b5080516000036110f45760405162461bcd60e51b815260040161046e90611ab5565b805181602001fd5b6001600160e01b031916630a85bd0160e11b149050610b36565b506001949350505050565b606061112c826109ef565b600061114360408051602081019091526000815290565b90506000815111611163576040518060200160405280600081525061118e565b8061116d8461132e565b60405160200161117e929190611b07565b6040516020818303038152906040525b9392505050565b6001600160a01b0382166111eb5760405162461bcd60e51b815260206004820181905260248201527f4552433732313a206d696e7420746f20746865207a65726f2061646472657373604482015260640161046e565b6000818152600260205260409020546001600160a01b0316156112505760405162461bcd60e51b815260206004820152601c60248201527f4552433732313a20746f6b656e20616c7265616479206d696e74656400000000604482015260640161046e565b61125e600083836001610f65565b6000818152600260205260409020546001600160a01b0316156112c35760405162461bcd60e51b815260206004820152601c60248201527f4552433732313a20746f6b656e20616c7265616479206d696e74656400000000604482015260640161046e565b6001600160a01b038216600081815260036020908152604080832080546001019055848352600290915280822080546001600160a01b0319168417905551839291907fddf252ad1be2c89b69c2b068fc378daa952ba7f163c4a11628f55a4df523b3ef908290a45050565b6060600061133b836113c1565b600101905060008167ffffffffffffffff81111561135b5761135b6116ae565b6040519080825280601f01601f191660200182016040528015611385576020820181803683370190505b5090508181016020015b600019016f181899199a1a9b1b9c1cb0b131b232b360811b600a86061a8153600a850494508461138f57509392505050565b60008072184f03e93ff9f4daa797ed6e38ed64bf6a1f0160401b83106114005772184f03e93ff9f4daa797ed6e38ed64bf6a1f0160401b830492506040015b6d04ee2d6d415b85acef8100000000831061142c576d04ee2d6d415b85acef8100000000830492506020015b662386f26fc10000831061144a57662386f26fc10000830492506010015b6305f5e1008310611462576305f5e100830492506008015b612710831061147657612710830492506004015b60648310611488576064830492506002015b600a831061033b5760010192915050565b6001600160e01b031981168114610a4e57600080fd5b6000602082840312156114c157600080fd5b813561118e81611499565b60005b838110156114e75781810151838201526020016114cf565b50506000910152565b600081518084526115088160208601602086016114cc565b601f01601f19169290920160200192915050565b60208152600061118e60208301846114f0565b60006020828403121561154157600080fd5b5035919050565b80356001600160a01b038116811461155f57600080fd5b919050565b6000806040838503121561157757600080fd5b61158083611548565b946020939093013593505050565b6000806000606084860312156115a357600080fd5b6115ac84611548565b92506115ba60208501611548565b9150604084013590509250925092565b6000602082840312156115dc57600080fd5b61118e82611548565b600080602083850312156115f857600080fd5b823567ffffffffffffffff8082111561161057600080fd5b818501915085601f83011261162457600080fd5b81358181111561163357600080fd5b86602082850101111561164557600080fd5b60209290920196919550909350505050565b8215158152604060208201526000610b3660408301846114f0565b6000806040838503121561168557600080fd5b61168e83611548565b9150602083013580151581146116a357600080fd5b809150509250929050565b634e487b7160e01b600052604160045260246000fd5b600067ffffffffffffffff808411156116df576116df6116ae565b604051601f8501601f19908116603f01168101908282118183101715611707576117076116ae565b8160405280935085815286868601111561172057600080fd5b858560208301376000602087830101525050509392505050565b6000806000806080858703121561175057600080fd5b61175985611548565b935061176760208601611548565b925060408501359150606085013567ffffffffffffffff81111561178a57600080fd5b8501601f8101871361179b57600080fd5b6117aa878235602084016116c4565b91505092959194509250565b600082601f8301126117c757600080fd5b61118e838335602085016116c4565b600080604083850312156117e957600080fd5b823567ffffffffffffffff8082111561180157600080fd5b61180d868387016117b6565b9350602085013591508082111561182357600080fd5b50611830858286016117b6565b9150509250929050565b6000806040838503121561184d57600080fd5b61185683611548565b915061186460208401611548565b90509250929050565b600181811c9082168061188157607f821691505b6020821081036118a157634e487b7160e01b600052602260045260246000fd5b50919050565b6020808252602d908201527f4552433732313a2063616c6c6572206973206e6f7420746f6b656e206f776e6560408201526c1c881bdc88185c1c1c9bdd9959609a1b606082015260800190565b634e487b7160e01b600052601160045260246000fd5b8082018082111561033b5761033b6118f4565b634e487b7160e01b600052603260045260246000fd5b8181038181111561033b5761033b6118f4565b600082516119588184602087016114cc565b9190910192915050565b60208082526025908201527f4552433732313a207472616e736665722066726f6d20696e636f72726563742060408201526437bbb732b960d91b606082015260800190565b601f82111561050f57600081815260208120601f850160051c810160208610156119ce5750805b601f850160051c820191505b818110156119ed578281556001016119da565b505050505050565b815167ffffffffffffffff811115611a0f57611a0f6116ae565b611a2381611a1d845461186d565b846119a7565b602080601f831160018114611a585760008415611a405750858301515b600019600386901b1c1916600185901b1785556119ed565b600085815260208120601f198616915b82811015611a8757888601518255948401946001909101908401611a68565b5085821015611aa55787850151600019600388901b60f8161c191681555b5050505050600190811b01905550565b60208082526032908201527f4552433732313a207472616e7366657220746f206e6f6e20455243373231526560408201527131b2b4bb32b91034b6b83632b6b2b73a32b960711b606082015260800190565b60008351611b198184602088016114cc565b835190830190611b2d8183602088016114cc565b01949350505050565b6001600160a01b0385811682528416602082015260408101839052608060608201819052600090611b69908301846114f0565b9695505050505050565b600060208284031215611b8557600080fd5b815161118e8161149956fea2646970667358221220561d0b765c4066dc4a1dfe902e9870febe3654cdf59a48b136d1694bfda49df064736f6c6343000811003368747470733a2f2f697066732e696f2f697066732f516d59615473797854446e724734746f6338373231773632724c345a424b585154476a396339527064726e746f752f707572706c652d7370726f75742e6a736f6e68747470733a2f2f697066732e696f2f697066732f516d59615473797854446e724734746f6338373231773632724c345a424b585154476a396339527064726e746f752f707572706c652d626c6f6f6d732e6a736f6e68747470733a2f2f697066732e696f2f697066732f516d59615473797854446e724734746f6338373231773632724c345a424b585154476a396339527064726e746f752f736565642e6a736f6e",
    "linkReferences": {}
  },
  "methodIdentifiers": {
    "approve(address,uint256)": "095ea7b3",
    "balanceOf(address)": "70a08231",
    "checkUpkeep()": "a13abdad",
    "compareStrings(string,string)": "bed34bba",
    "flowerStage(uint256)": "d9f2f7a2",
    "getApproved(uint256)": "081812fc",
    "growFlower(uint256)": "2b98af8d",
    "isApprovedForAll(address,address)": "e985e9c5",
    "name()": "06fdde03",
    "ownerOf(uint256)": "6352211e",
    "performUpkeep(bytes)": "4585e33b",
    "safeMint(address)": "40d097c3",
    "safeTransferFrom(address,address,uint256)": "42842e0e",
    "safeTransferFrom(address,address,uint256,bytes)": "b88d4fde",
    "setApprovalForAll(address,bool)": "a22cb465",
    "supportsInterface(bytes4)": "01ffc9a7",
    "symbol()": "95d89b41",
    "tokenURI(uint256)": "c87b56dd",
    "transferFrom(address,address,uint256)": "23b872dd"
  },
  "id": 26
}